{
  "abi": [
    {
      "inputs": [
        {
          "internalType": "contract IEntryPoint",
          "name": "newEntryPoint",
          "type": "address"
        },
        {
          "internalType": "address",
          "name": "_owner",
          "type": "address"
        }
      ],
      "stateMutability": "nonpayable",
      "type": "constructor"
    },
    {
      "anonymous": false,
      "inputs": [
        {
          "indexed": true,
          "internalType": "address",
          "name": "previousOwner",
          "type": "address"
        },
        {
          "indexed": true,
          "internalType": "address",
          "name": "newOwner",
          "type": "address"
        }
      ],
      "name": "OwnershipTransferred",
      "type": "event"
    },
    {
      "inputs": [],
      "name": "POST_OP_GAS",
      "outputs": [
        {
          "internalType": "uint256",
          "name": "",
          "type": "uint256"
        }
      ],
      "stateMutability": "view",
      "type": "function"
    },
    {
      "inputs": [
        {
          "internalType": "uint32",
          "name": "unstakeDelaySec",
          "type": "uint32"
        }
      ],
      "name": "addStake",
      "outputs": [],
      "stateMutability": "payable",
      "type": "function"
    },
    {
      "inputs": [
        {
          "internalType": "address",
          "name": "sender",
          "type": "address"
        }
      ],
      "name": "allowedAddresses",
      "outputs": [
        {
          "internalType": "bool",
          "name": "isAllowed",
          "type": "bool"
        }
      ],
      "stateMutability": "view",
      "type": "function"
    },
    {
      "inputs": [
        {
          "internalType": "address[]",
          "name": "addr",
          "type": "address[]"
        },
        {
          "internalType": "bool[]",
          "name": "allowed",
          "type": "bool[]"
        }
      ],
      "name": "batchSetAllowedAddresses",
      "outputs": [],
      "stateMutability": "nonpayable",
      "type": "function"
    },
    {
      "inputs": [],
      "name": "deposit",
      "outputs": [],
      "stateMutability": "payable",
      "type": "function"
    },
    {
      "inputs": [],
      "name": "entryPoint",
      "outputs": [
        {
          "internalType": "contract IEntryPoint",
          "name": "",
          "type": "address"
        }
      ],
      "stateMutability": "view",
      "type": "function"
    },
    {
      "inputs": [],
      "name": "getDeposit",
      "outputs": [
        {
          "internalType": "uint256",
          "name": "",
          "type": "uint256"
        }
      ],
      "stateMutability": "view",
      "type": "function"
    },
    {
      "inputs": [
        {
          "components": [
            {
              "internalType": "address",
              "name": "sender",
              "type": "address"
            },
            {
              "internalType": "uint256",
              "name": "nonce",
              "type": "uint256"
            },
            {
              "internalType": "bytes",
              "name": "initCode",
              "type": "bytes"
            },
            {
              "internalType": "bytes",
              "name": "callData",
              "type": "bytes"
            },
            {
              "internalType": "uint256",
              "name": "callGasLimit",
              "type": "uint256"
            },
            {
              "internalType": "uint256",
              "name": "verificationGasLimit",
              "type": "uint256"
            },
            {
              "internalType": "uint256",
              "name": "preVerificationGas",
              "type": "uint256"
            },
            {
              "internalType": "uint256",
              "name": "maxFeePerGas",
              "type": "uint256"
            },
            {
              "internalType": "uint256",
              "name": "maxPriorityFeePerGas",
              "type": "uint256"
            },
            {
              "internalType": "bytes",
              "name": "paymasterAndData",
              "type": "bytes"
            },
            {
              "internalType": "bytes",
              "name": "signature",
              "type": "bytes"
            }
          ],
          "internalType": "struct UserOperation",
          "name": "userOp",
          "type": "tuple"
        },
        {
          "internalType": "uint48",
          "name": "validUntil",
          "type": "uint48"
        },
        {
          "internalType": "uint48",
          "name": "validAfter",
          "type": "uint48"
        },
        {
          "internalType": "address",
          "name": "erc20Token",
          "type": "address"
        },
        {
          "internalType": "uint256",
          "name": "exchangeRate",
          "type": "uint256"
        }
      ],
      "name": "getHash",
      "outputs": [
        {
          "internalType": "bytes32",
          "name": "",
          "type": "bytes32"
        }
      ],
      "stateMutability": "view",
      "type": "function"
    },
    {
      "inputs": [],
      "name": "isAllowlistEnabled",
      "outputs": [
        {
          "internalType": "bool",
          "name": "",
          "type": "bool"
        }
      ],
      "stateMutability": "view",
      "type": "function"
    },
    {
      "inputs": [],
      "name": "owner",
      "outputs": [
        {
          "internalType": "address",
          "name": "",
          "type": "address"
        }
      ],
      "stateMutability": "view",
      "type": "function"
    },
    {
      "inputs": [
        {
          "internalType": "bytes",
          "name": "paymasterAndData",
          "type": "bytes"
        }
      ],
      "name": "parsePaymasterAndData",
      "outputs": [
        {
          "internalType": "uint48",
          "name": "validUntil",
          "type": "uint48"
        },
        {
          "internalType": "uint48",
          "name": "validAfter",
          "type": "uint48"
        },
        {
          "internalType": "address",
          "name": "erc20Token",
          "type": "address"
        },
        {
          "internalType": "uint256",
          "name": "exchangeRate",
          "type": "uint256"
        },
        {
          "internalType": "bytes",
          "name": "signature",
          "type": "bytes"
        }
      ],
      "stateMutability": "pure",
      "type": "function"
    },
    {
      "inputs": [
        {
          "internalType": "enum IPaymaster.PostOpMode",
          "name": "mode",
          "type": "uint8"
        },
        {
          "internalType": "bytes",
          "name": "context",
          "type": "bytes"
        },
        {
          "internalType": "uint256",
          "name": "actualGasCost",
          "type": "uint256"
        }
      ],
      "name": "postOp",
      "outputs": [],
      "stateMutability": "nonpayable",
      "type": "function"
    },
    {
      "inputs": [],
      "name": "renounceOwnership",
      "outputs": [],
      "stateMutability": "nonpayable",
      "type": "function"
    },
    {
      "inputs": [
        {
          "internalType": "address",
          "name": "sender",
          "type": "address"
        }
      ],
      "name": "senderNonce",
      "outputs": [
        {
          "internalType": "uint256",
          "name": "nonce",
          "type": "uint256"
        }
      ],
      "stateMutability": "view",
      "type": "function"
    },
    {
      "inputs": [
        {
          "internalType": "address",
          "name": "addr",
          "type": "address"
        },
        {
          "internalType": "bool",
          "name": "allowed",
          "type": "bool"
        }
      ],
      "name": "setAllowedAddress",
      "outputs": [],
      "stateMutability": "nonpayable",
      "type": "function"
    },
    {
      "inputs": [
        {
          "internalType": "bool",
          "name": "enabled",
          "type": "bool"
        }
      ],
      "name": "setAllowlistEnabled",
      "outputs": [],
      "stateMutability": "nonpayable",
      "type": "function"
    },
    {
      "inputs": [
        {
          "internalType": "address",
          "name": "newOwner",
          "type": "address"
        }
      ],
      "name": "transferOwnership",
      "outputs": [],
      "stateMutability": "nonpayable",
      "type": "function"
    },
    {
      "inputs": [],
      "name": "unlockStake",
      "outputs": [],
      "stateMutability": "nonpayable",
      "type": "function"
    },
    {
      "inputs": [
        {
          "components": [
            {
              "internalType": "address",
              "name": "sender",
              "type": "address"
            },
            {
              "internalType": "uint256",
              "name": "nonce",
              "type": "uint256"
            },
            {
              "internalType": "bytes",
              "name": "initCode",
              "type": "bytes"
            },
            {
              "internalType": "bytes",
              "name": "callData",
              "type": "bytes"
            },
            {
              "internalType": "uint256",
              "name": "callGasLimit",
              "type": "uint256"
            },
            {
              "internalType": "uint256",
              "name": "verificationGasLimit",
              "type": "uint256"
            },
            {
              "internalType": "uint256",
              "name": "preVerificationGas",
              "type": "uint256"
            },
            {
              "internalType": "uint256",
              "name": "maxFeePerGas",
              "type": "uint256"
            },
            {
              "internalType": "uint256",
              "name": "maxPriorityFeePerGas",
              "type": "uint256"
            },
            {
              "internalType": "bytes",
              "name": "paymasterAndData",
              "type": "bytes"
            },
            {
              "internalType": "bytes",
              "name": "signature",
              "type": "bytes"
            }
          ],
          "internalType": "struct UserOperation",
          "name": "userOp",
          "type": "tuple"
        },
        {
          "internalType": "bytes32",
          "name": "userOpHash",
          "type": "bytes32"
        },
        {
          "internalType": "uint256",
          "name": "maxCost",
          "type": "uint256"
        }
      ],
      "name": "validatePaymasterUserOp",
      "outputs": [
        {
          "internalType": "bytes",
          "name": "context",
          "type": "bytes"
        },
        {
          "internalType": "uint256",
          "name": "validationData",
          "type": "uint256"
        }
      ],
      "stateMutability": "nonpayable",
      "type": "function"
    },
    {
      "inputs": [
        {
          "internalType": "address payable",
          "name": "withdrawAddress",
          "type": "address"
        }
      ],
      "name": "withdrawStake",
      "outputs": [],
      "stateMutability": "nonpayable",
      "type": "function"
    },
    {
      "inputs": [
        {
          "internalType": "address payable",
          "name": "withdrawAddress",
          "type": "address"
        },
        {
          "internalType": "uint256",
          "name": "amount",
          "type": "uint256"
        }
      ],
      "name": "withdrawTo",
      "outputs": [],
      "stateMutability": "nonpayable",
      "type": "function"
    }
  ],
  "bytecode": {
    "object": "0x60a034620000c857601f62001e0e38819003918201601f19168301916001600160401b03831184841017620000cd578084926040948552833981010312620000c8578051906001600160a01b03908183168303620000c857602001519081168103620000c8576200007e916200007533620000e3565b608052620000e3565b604051611ce390816200012b82396080518181816101a60152818161028c015281816108ac0152818161091f015281816109c701528181610a8f01528181610b280152611c270152f35b600080fd5b634e487b7160e01b600052604160045260246000fd5b600080546001600160a01b039283166001600160a01b03198216811783559216907f8be0079c531659141344cd1fd0a4f28419497f9722a3daafe3b4186f6b6457e09080a356fe6080604052600436101561001257600080fd5b60003560e01c80630396cb6014610167578063205c287814610162578063290da2ad1461015d5780634120657a14610158578063715018a6146101535780638da5cb5b1461014e57806394d4ad60146101495780639b695840146101445780639c90b4431461013f578063a9a234091461013a578063b0d691fe14610135578063b8202d8f14610130578063bb9fe6bf1461012b578063c23a5cea14610126578063c399ec8814610121578063d0e30db01461011c578063d146fd1b14610117578063d7644ba214610112578063f2fde38b1461010d578063f465c77e146101085763fae369861461010357600080fd5b610df6565b610d94565b610c1b565b610bc2565b610b95565b610b04565b610a34565b610987565b6108ed565b6108d0565b61087f565b610766565b61071b565b6105c3565b6104cf565b61046d565b6103ee565b61039e565b610327565b61024c565b600060206003193601126102265760043563ffffffff81168091036102225761018e610e7e565b8173ffffffffffffffffffffffffffffffffffffffff7f00000000000000000000000000000000000000000000000000000000000000001691823b15610222576024604051809481937f0396cb60000000000000000000000000000000000000000000000000000000008352600483015234905af1801561021d57610211575080f35b61021a90610fd9565b80f35b6118a9565b5080fd5b80fd5b73ffffffffffffffffffffffffffffffffffffffff81160361024757565b600080fd5b3461024757600060406003193601126102265760043561026b81610229565b610273610e7e565b8173ffffffffffffffffffffffffffffffffffffffff807f00000000000000000000000000000000000000000000000000000000000000001692833b15610301576044908360405195869485937f205c287800000000000000000000000000000000000000000000000000000000855216600484015260243560248401525af1801561021d57610211575080f35b8280fd5b90816101609103126102475790565b359065ffffffffffff8216820361024757565b346102475760a06003193601126102475760043567ffffffffffffffff811161024757610358903690600401610305565b6024359065ffffffffffff90818316830361024757604435918216820361024757602092610396926064359161038d83610229565b6084359361106b565b604051908152f35b346102475760206003193601126102475773ffffffffffffffffffffffffffffffffffffffff6004356103d081610229565b166000526002602052602060ff604060002054166040519015158152f35b346102475760008060031936011261022657610408610e7e565b8073ffffffffffffffffffffffffffffffffffffffff81547fffffffffffffffffffffffff000000000000000000000000000000000000000081168355167f8be0079c531659141344cd1fd0a4f28419497f9722a3daafe3b4186f6b6457e08280a380f35b3461024757600060031936011261024757602073ffffffffffffffffffffffffffffffffffffffff60005416604051908152f35b9181601f840112156102475782359167ffffffffffffffff8311610247576020838186019501011161024757565b346102475760206003193601126102475760043567ffffffffffffffff81116102475760c073ffffffffffffffffffffffffffffffffffffffff7fffffffffffffffffffffffffffffffffffffffffffffffffffffffffffffffe061054361053d601f9536906004016104a1565b90611196565b9396849360409a969a939293519a8b9965ffffffffffff8092168b521660208a0152166040880152606087015260a060808701528160a087015286860137600085828601015201168101030190f35b9181601f840112156102475782359167ffffffffffffffff8311610247576020808501948460051b01011161024757565b346102475760406003193601126102475767ffffffffffffffff600435818111610247576105f5903690600401610592565b916024359081116102475761060e903690600401610592565b9091610618610e7e565b8184036106bd5760005b84811061062b57005b806106b361063d6106b8938688610f5e565b3561064781610bb8565b61068361065d610658858b89610f5e565b610f9d565b73ffffffffffffffffffffffffffffffffffffffff166000526002602052604060002090565b9060ff7fffffffffffffffffffffffffffffffffffffffffffffffffffffffffffffff0083541691151516179055565b610f2c565b610622565b60646040517f08c379a000000000000000000000000000000000000000000000000000000000815260206004820152601e60248201527f4d796e615061796d61737465723a206c656e677468206d69736d6174636800006044820152fd5b346102475760206003193601126102475773ffffffffffffffffffffffffffffffffffffffff60043561074d81610229565b1660005260016020526020604060002054604051908152f35b34610247576060600319360112610247576004356003811015610247576024359067ffffffffffffffff8211610247576107a660a09236906004016104a1565b908093916107b2611c10565b810103126102475781356107c581610229565b600261081a61080c6020860135956107dc87610229565b61080760406107fb6060840135608085013580820361086d5750611944565b92013591604435611969565b611956565b670de0b6b3a7640000900490565b9261082481611976565b0361082b57005b61086b9273ffffffffffffffffffffffffffffffffffffffff61086360005473ffffffffffffffffffffffffffffffffffffffff1690565b921690611980565b005b9061087a91480190611bfe565b611944565b3461024757600060031936011261024757602060405173ffffffffffffffffffffffffffffffffffffffff7f0000000000000000000000000000000000000000000000000000000000000000168152f35b346102475760006003193601126102475760206040516188b88152f35b346102475760008060031936011261022657610907610e7e565b8073ffffffffffffffffffffffffffffffffffffffff7f000000000000000000000000000000000000000000000000000000000000000016803b156109845781906004604051809481937fbb9fe6bf0000000000000000000000000000000000000000000000000000000083525af1801561021d57610211575080f35b50fd5b346102475760006020600319360112610226576004356109a681610229565b6109ae610e7e565b8173ffffffffffffffffffffffffffffffffffffffff807f00000000000000000000000000000000000000000000000000000000000000001692833b15610301576024908360405195869485937fc23a5cea0000000000000000000000000000000000000000000000000000000085521660048401525af1801561021d57610211575080f35b3461024757600080600319360112610226576040517f70a0823100000000000000000000000000000000000000000000000000000000815230600482015260208160248173ffffffffffffffffffffffffffffffffffffffff7f0000000000000000000000000000000000000000000000000000000000000000165afa90811561021d578291610ace575b604051828152602090f35b0390f35b90506020813d8211610afc575b81610ae86020938361102a565b8101031261022257610aca91505138610abf565b3d9150610adb565b6000806003193601126102265773ffffffffffffffffffffffffffffffffffffffff7f00000000000000000000000000000000000000000000000000000000000000001681813b1561022657602491604051928380927fb760faf900000000000000000000000000000000000000000000000000000000825230600483015234905af1801561021d57610211575080f35b3461024757600060031936011261024757602060ff600354166040519015158152f35b8015150361024757565b3461024757602060031936011261024757600435610bdf81610bb8565b610be7610e7e565b60ff7fffffffffffffffffffffffffffffffffffffffffffffffffffffffffffffff00600354169115151617600355600080f35b3461024757602060031936011261024757600435610c3881610229565b610c40610e7e565b73ffffffffffffffffffffffffffffffffffffffff8091168015610cb2576000918254827fffffffffffffffffffffffff00000000000000000000000000000000000000008216178455167f8be0079c531659141344cd1fd0a4f28419497f9722a3daafe3b4186f6b6457e08380a380f35b60846040517f08c379a000000000000000000000000000000000000000000000000000000000815260206004820152602660248201527f4f776e61626c653a206e6577206f776e657220697320746865207a65726f206160448201527f64647265737300000000000000000000000000000000000000000000000000006064820152fd5b919082519283825260005b848110610d805750507fffffffffffffffffffffffffffffffffffffffffffffffffffffffffffffffe0601f8460006020809697860101520116010190565b602081830181015184830182015201610d41565b346102475760606003193601126102475760043567ffffffffffffffff811161024757610dd8610dcb610dec923690600401610305565b610dd3611c10565b6113bc565b604051928392604084526040840190610d36565b9060208301520390f35b346102475760406003193601126102475761086b600435610e1681610229565b73ffffffffffffffffffffffffffffffffffffffff60243591610e3883610bb8565b610e40610e7e565b16600052600260205260406000209060ff7fffffffffffffffffffffffffffffffffffffffffffffffffffffffffffffff0083541691151516179055565b73ffffffffffffffffffffffffffffffffffffffff600054163303610e9f57565b60646040517f08c379a000000000000000000000000000000000000000000000000000000000815260206004820152602060248201527f4f776e61626c653a2063616c6c6572206973206e6f7420746865206f776e65726044820152fd5b7f4e487b7100000000000000000000000000000000000000000000000000000000600052601160045260246000fd5b7fffffffffffffffffffffffffffffffffffffffffffffffffffffffffffffffff8114610f595760010190565b610efd565b9190811015610f6e5760051b0190565b7f4e487b7100000000000000000000000000000000000000000000000000000000600052603260045260246000fd5b35610fa781610229565b90565b7f4e487b7100000000000000000000000000000000000000000000000000000000600052604160045260246000fd5b67ffffffffffffffff8111610fed57604052565b610faa565b60a0810190811067ffffffffffffffff821117610fed57604052565b6040810190811067ffffffffffffffff821117610fed57604052565b90601f7fffffffffffffffffffffffffffffffffffffffffffffffffffffffffffffffe0910116810190811067ffffffffffffffff821117610fed57604052565b90929161113f92610120958361108388820182611145565b5003967fffffffffffffffffffffffffffffffffffffffffffffffffffffffffffffffe094858901604051998a01604052808a528160208b013773ffffffffffffffffffffffffffffffffffffffff80913516600052600160205260406000205493604051988996611103602089019c8d966101008098528a0190610d36565b964660408a01523060608a0152608089015265ffffffffffff80921660a08901521660c08701521660e08501528301520390810183528261102a565b51902090565b9035907fffffffffffffffffffffffffffffffffffffffffffffffffffffffffffffffe181360301821215610247570180359067ffffffffffffffff82116102475760200191813603831361024757565b919080609411610247576111ac60148401610314565b916111b960348501610314565b916054850135916111c983610229565b7fffffffffffffffffffffffffffffffffffffffffffffffffffffffffffffff6c609473ffffffffffffffffffffffffffffffffffffffff6074890135951695969701920190565b1561121857565b60846040517f08c379a000000000000000000000000000000000000000000000000000000000815260206004820152603b60248201527f4d796e615061796d61737465723a20696e76616c6964207369676e617475726560448201527f206c656e67746820696e207061796d6173746572416e644461746100000000006064820152fd5b156112a357565b60846040517f08c379a000000000000000000000000000000000000000000000000000000000815260206004820152602160248201527f4d796e615061796d61737465723a2073656e646572206e6f7420616c6c6f776560448201527f64000000000000000000000000000000000000000000000000000000000000006064820152fd5b67ffffffffffffffff8111610fed57601f017fffffffffffffffffffffffffffffffffffffffffffffffffffffffffffffffe01660200190565b604051906020820182811067ffffffffffffffff821117610fed5760405260008252565b92919261139182611327565b9161139f604051938461102a565b829481845281830111610247578281602093846000960137010152565b906113ce61053d610120840184611145565b929190604084989598148015611687575b6113e890611211565b60035460ff1661162f575b61143261140383858b8a8a61106b565b7f19457468657265756d205369676e6564204d6573736167653a0a333200000000600052601c52603c60002090565b9173ffffffffffffffffffffffffffffffffffffffff936114768588351673ffffffffffffffffffffffffffffffffffffffff166000526001602052604060002090565b6114808154610f2c565b905561148a611361565b96858216611588575b5050506114e7916114c86114ce926114c060005473ffffffffffffffffffffffffffffffffffffffff1690565b963691611385565b90611691565b73ffffffffffffffffffffffffffffffffffffffff1690565b911603611539577fffffffffffff000000000000000000000000000000000000000000000000000079ffffffffffff0000000000000000000000000000000000000000919460d01b169160a01b161790565b9079ffffffffffff00000000000000000000000000000000000000007fffffffffffff00000000000000000000000000000000000000000000000000006001939560d01b169160a01b16171790565b6114ce939750916116256114c8926115f9856115a76114e79997610f9d565b60405195869460e0610100850135940135926020870191959493909260809360a084019773ffffffffffffffffffffffffffffffffffffffff8092168552166020840152604083015260608201520152565b037fffffffffffffffffffffffffffffffffffffffffffffffffffffffffffffffe0810183528261102a565b9692829450611493565b61168261167d61167673ffffffffffffffffffffffffffffffffffffffff88351673ffffffffffffffffffffffffffffffffffffffff166000526002602052604060002090565b5460ff1690565b61129c565b6113f3565b50604184146113df565b610fa79161169e91611871565b9190916116e4565b7f4e487b7100000000000000000000000000000000000000000000000000000000600052602160045260246000fd5b600511156116df57565b6116a6565b6116ed816116d5565b806116f55750565b6116fe816116d5565b60018103611769576040517f08c379a000000000000000000000000000000000000000000000000000000000815260206004820152601860248201527f45434453413a20696e76616c6964207369676e617475726500000000000000006044820152606490fd5b0390fd5b611772816116d5565b600281036117d9576040517f08c379a000000000000000000000000000000000000000000000000000000000815260206004820152601f60248201527f45434453413a20696e76616c6964207369676e6174757265206c656e677468006044820152606490fd5b806117e56003926116d5565b146117ec57565b6040517f08c379a000000000000000000000000000000000000000000000000000000000815260206004820152602260248201527f45434453413a20696e76616c6964207369676e6174757265202773272076616c60448201527f75650000000000000000000000000000000000000000000000000000000000006064820152608490fd5b90604181511460001461189f5761189b916020820151906060604084015193015160001a906118b5565b9091565b5050600090600290565b6040513d6000823e3d90fd5b9291907f7fffffffffffffffffffffffffffffff5d576e7357a4501ddfe92f46681b20a083116119385791608094939160ff602094604051948552168484015260408301526060820152600093849182805260015afa1561021d57815173ffffffffffffffffffffffffffffffffffffffff811615611932579190565b50600190565b50505050600090600390565b906188b89180830292830403610f5957565b81810292918115918404141715610f5957565b91908201809211610f5957565b600311156116df57565b611a5b91600080611a70969560405194602097888701957f23b872dd00000000000000000000000000000000000000000000000000000000875273ffffffffffffffffffffffffffffffffffffffff938480921660248a01521660448801526064870152606486526119f186610ff2565b169260405194611a008661100e565b8786527f5361666545524332303a206c6f772d6c6576656c2063616c6c206661696c656488870152519082855af13d15611a8a573d91611a3f83611327565b92611a4d604051948561102a565b83523d60008785013e611b32565b8051918215928315611a72575b505050611aa7565b565b611a829350820181019101611a92565b388080611a68565b606091611b32565b908160209103126102475751610fa781610bb8565b15611aae57565b60846040517f08c379a000000000000000000000000000000000000000000000000000000000815260206004820152602a60248201527f5361666545524332303a204552433230206f7065726174696f6e20646964206e60448201527f6f742073756363656564000000000000000000000000000000000000000000006064820152fd5b91929015611bad5750815115611b46575090565b3b15611b4f5790565b60646040517f08c379a000000000000000000000000000000000000000000000000000000000815260206004820152601d60248201527f416464726573733a2063616c6c20746f206e6f6e2d636f6e74726163740000006044820152fd5b825190915015611bc05750805190602001fd5b611765906040519182917f08c379a0000000000000000000000000000000000000000000000000000000008352602060048401526024830190610d36565b9080821015611c0b575090565b905090565b73ffffffffffffffffffffffffffffffffffffffff7f0000000000000000000000000000000000000000000000000000000000000000163303611c4f57565b60646040517f08c379a000000000000000000000000000000000000000000000000000000000815260206004820152601560248201527f53656e646572206e6f7420456e747279506f696e7400000000000000000000006044820152fdfea2646970667358221220028cb5d78e77c64962fada28c759191d7d00c794bda9d77e1e1f13603081ce3764736f6c63430008130033",
    "linkReferences": {}
  },
  "methodIdentifiers": {
    "POST_OP_GAS()": "b8202d8f",
    "addStake(uint32)": "0396cb60",
    "allowedAddresses(address)": "4120657a",
    "batchSetAllowedAddresses(address[],bool[])": "9b695840",
    "deposit()": "d0e30db0",
    "entryPoint()": "b0d691fe",
    "getDeposit()": "c399ec88",
    "getHash((address,uint256,bytes,bytes,uint256,uint256,uint256,uint256,uint256,bytes,bytes),uint48,uint48,address,uint256)": "290da2ad",
    "isAllowlistEnabled()": "d146fd1b",
    "owner()": "8da5cb5b",
    "parsePaymasterAndData(bytes)": "94d4ad60",
    "postOp(uint8,bytes,uint256)": "a9a23409",
    "renounceOwnership()": "715018a6",
    "senderNonce(address)": "9c90b443",
    "setAllowedAddress(address,bool)": "fae36986",
    "setAllowlistEnabled(bool)": "d7644ba2",
    "transferOwnership(address)": "f2fde38b",
    "unlockStake()": "bb9fe6bf",
    "validatePaymasterUserOp((address,uint256,bytes,bytes,uint256,uint256,uint256,uint256,uint256,bytes,bytes),bytes32,uint256)": "f465c77e",
    "withdrawStake(address)": "c23a5cea",
    "withdrawTo(address,uint256)": "205c2878"
  },
  "id": 10
}